:0400000036EF00F0E7
:06000800268243ED03F027
:100018002680D8CF0FF0E8CF10F0E0CF11F0D9CF7D
:1000280012F0DACF13F09EAA1CEF00F01EEF00F0DA
:100038002AEF00F0ABA223EF00F025EF00F028EF45
:1000480000F0AB980000AB88A0EC03F013C0DAFF17
:1000580012C0D9FF11C0E0FF10C0E8FF0FC0D8FFE1
:080068002690100006EF04F0E1
:100600000000D3508F0B6009D36E9280C150F00B65
:100610000E09C16EC30EC216C198C19AF80EC0165B
:10062000C050C70B0809C06EC280C08ECA84030EBA
:10063000CA12BD50F00B0C09BD6E9B0ECB6E94948C
:10064000F10E9216010E936E946AF10E89168B6A62
:10065000F292F2889D8C9E9CF28CF28ED08EF28E5D
:10066000F28C948C948EAC98B896AC94330EAF6E9A
:10067000AB8E9E989E9AAC8AAB889D989F989D8AD7
:100680009F9AC282120006009EAC49EF03F04BEF26
:1006900003F063EF03F0C4500A6E096AC3500924E3
:1006A0000B6E000E0A200C6E9E9C0BC007F00CC057
:1006B00008F017EC04F0070E096E7D0EE82EFED749
:1006C000092EFCD70000F2A268EF03F06AEF03F0F6
:1006D00075EF03F0F2923AEC04F0410E096EEE0E63
:1006E000E82EFED7092EFCD700D02692110001EC8F
:1006F00003F0800E166E2FEC04F014C017F015C036
:1007000018F0D8EC03F0800E146EC1EC03F0145016
:100710001510D8B48EEF03F090EF03F094EF03F0D0
:10072000800E146E39EC04F0C2B299EF03F09BEF27
:1007300003F079EF03F0C28279EF03F036EF00F0B7
:10074000AECF0EF0000E2424D96E010E2520DA6EF5
:10075000AECFDFFF244A252A0D0E0E18D8A4B3EF22
:1007600003F0B5EF03F0BDEF03F00D0E24EC04F041
:100770000A0E24EC04F0C0EF03F00E5024EC04F059
:10078000120014C016F0C6EF03F0142A1450D96EEC
:10079000DA6ADF50D8A4CFEF03F0D1EF03F0C5EF52
:1007A00003F01650145C146E156A14BE1506120080
:1007B00016C019F017C0D9FF18C0DAFF174A182A57
:1007C000192A1904E16EE26ADFCFE7FFE750D8A4E7
:1007D000ECEF03F0EEEF03F0DAEF03F0120003C0EA
:1007E00005F004C006F0063406320532063406323F
:1007F00005320550BE6E03C005F0030E0516053A1E
:10080000BD500518CF0B0518BD6E120001EE00F0AB
:10081000640EEE6AE806FDE100EE1AF00C0EEE6AD8
:10082000E806FDE126902692000177EF03F007C06D
:1008300001F008C002F034EC04F001C003F002C083
:1008400004F0EFEC03F012000D6EACA22AEF04F0FE
:100850002CEF04F025EF04F00DC0ADFF1200000EE8
:10086000146E010E156E120001C001F002C002F0FC
:060870001200120012004C
:020000040020DA
:08000000FFFFFFFFFFFFFFFF00
:020000040030CA
:0E000000FF881F00FF8381FF0FC00FE00F403D
:00000001FF
